{
  "contractName": "DArtFlexNFT",
  "abi": [
    {
      "inputs": [
        {
          "internalType": "contract AccessControls",
          "name": "_accessControls",
          "type": "address"
        }
      ],
      "stateMutability": "nonpayable",
      "type": "constructor"
    },
    {
      "anonymous": false,
      "inputs": [
        {
          "indexed": true,
          "internalType": "address",
          "name": "owner",
          "type": "address"
        },
        {
          "indexed": true,
          "internalType": "address",
          "name": "approved",
          "type": "address"
        },
        {
          "indexed": true,
          "internalType": "uint256",
          "name": "tokenId",
          "type": "uint256"
        }
      ],
      "name": "Approval",
      "type": "event"
    },
    {
      "anonymous": false,
      "inputs": [
        {
          "indexed": true,
          "internalType": "address",
          "name": "owner",
          "type": "address"
        },
        {
          "indexed": true,
          "internalType": "address",
          "name": "operator",
          "type": "address"
        },
        {
          "indexed": false,
          "internalType": "bool",
          "name": "approved",
          "type": "bool"
        }
      ],
      "name": "ApprovalForAll",
      "type": "event"
    },
    {
      "anonymous": false,
      "inputs": [
        {
          "indexed": false,
          "internalType": "string",
          "name": "_tokenUri",
          "type": "string"
        }
      ],
      "name": "DArtFlexBaseUriUpdate",
      "type": "event"
    },
    {
      "anonymous": false,
      "inputs": [],
      "name": "DArtFlexNFTContractDeployed",
      "type": "event"
    },
    {
      "anonymous": false,
      "inputs": [
        {
          "indexed": false,
          "internalType": "uint256",
          "name": "_tokenId",
          "type": "uint256"
        },
        {
          "indexed": false,
          "internalType": "address",
          "name": "_creator",
          "type": "address"
        },
        {
          "indexed": false,
          "internalType": "address",
          "name": "_owner",
          "type": "address"
        },
        {
          "indexed": false,
          "internalType": "string",
          "name": "_tokenUri",
          "type": "string"
        },
        {
          "indexed": false,
          "internalType": "string",
          "name": "_edition",
          "type": "string"
        }
      ],
      "name": "DArtFlexNFTMinted",
      "type": "event"
    },
    {
      "anonymous": false,
      "inputs": [
        {
          "indexed": true,
          "internalType": "uint256",
          "name": "_tokenId",
          "type": "uint256"
        },
        {
          "indexed": false,
          "internalType": "string",
          "name": "_tokenUri",
          "type": "string"
        }
      ],
      "name": "DArtFlexTokenUriUpdate",
      "type": "event"
    },
    {
      "anonymous": false,
      "inputs": [
        {
          "indexed": true,
          "internalType": "uint256",
          "name": "_tokenId",
          "type": "uint256"
        },
        {
          "indexed": false,
          "internalType": "uint256",
          "name": "_salePrice",
          "type": "uint256"
        }
      ],
      "name": "TokenPrimarySalePriceSet",
      "type": "event"
    },
    {
      "anonymous": false,
      "inputs": [
        {
          "indexed": true,
          "internalType": "address",
          "name": "from",
          "type": "address"
        },
        {
          "indexed": true,
          "internalType": "address",
          "name": "to",
          "type": "address"
        },
        {
          "indexed": true,
          "internalType": "uint256",
          "name": "tokenId",
          "type": "uint256"
        }
      ],
      "name": "Transfer",
      "type": "event"
    },
    {
      "inputs": [],
      "name": "accessControls",
      "outputs": [
        {
          "internalType": "contract AccessControls",
          "name": "",
          "type": "address"
        }
      ],
      "stateMutability": "view",
      "type": "function",
      "constant": true
    },
    {
      "inputs": [
        {
          "internalType": "address",
          "name": "owner",
          "type": "address"
        }
      ],
      "name": "allTokensOfOwner",
      "outputs": [
        {
          "internalType": "bytes32[]",
          "name": "",
          "type": "bytes32[]"
        }
      ],
      "stateMutability": "view",
      "type": "function",
      "constant": true
    },
    {
      "inputs": [
        {
          "internalType": "address",
          "name": "to",
          "type": "address"
        },
        {
          "internalType": "uint256",
          "name": "tokenId",
          "type": "uint256"
        }
      ],
      "name": "approve",
      "outputs": [],
      "stateMutability": "nonpayable",
      "type": "function"
    },
    {
      "inputs": [
        {
          "internalType": "address",
          "name": "owner",
          "type": "address"
        }
      ],
      "name": "balanceOf",
      "outputs": [
        {
          "internalType": "uint256",
          "name": "",
          "type": "uint256"
        }
      ],
      "stateMutability": "view",
      "type": "function",
      "constant": true
    },
    {
      "inputs": [],
      "name": "baseURI",
      "outputs": [
        {
          "internalType": "string",
          "name": "",
          "type": "string"
        }
      ],
      "stateMutability": "view",
      "type": "function",
      "constant": true
    },
    {
      "inputs": [
        {
          "internalType": "uint256",
          "name": "tokenId",
          "type": "uint256"
        }
      ],
      "name": "getApproved",
      "outputs": [
        {
          "internalType": "address",
          "name": "",
          "type": "address"
        }
      ],
      "stateMutability": "view",
      "type": "function",
      "constant": true
    },
    {
      "inputs": [
        {
          "internalType": "address",
          "name": "owner",
          "type": "address"
        },
        {
          "internalType": "address",
          "name": "operator",
          "type": "address"
        }
      ],
      "name": "isApprovedForAll",
      "outputs": [
        {
          "internalType": "bool",
          "name": "",
          "type": "bool"
        }
      ],
      "stateMutability": "view",
      "type": "function",
      "constant": true
    },
    {
      "inputs": [],
      "name": "name",
      "outputs": [
        {
          "internalType": "string",
          "name": "",
          "type": "string"
        }
      ],
      "stateMutability": "view",
      "type": "function",
      "constant": true
    },
    {
      "inputs": [
        {
          "internalType": "uint256",
          "name": "tokenId",
          "type": "uint256"
        }
      ],
      "name": "ownerOf",
      "outputs": [
        {
          "internalType": "address",
          "name": "",
          "type": "address"
        }
      ],
      "stateMutability": "view",
      "type": "function",
      "constant": true
    },
    {
      "inputs": [
        {
          "internalType": "uint256",
          "name": "",
          "type": "uint256"
        }
      ],
      "name": "postCreators",
      "outputs": [
        {
          "internalType": "address",
          "name": "",
          "type": "address"
        }
      ],
      "stateMutability": "view",
      "type": "function",
      "constant": true
    },
    {
      "inputs": [
        {
          "internalType": "uint256",
          "name": "",
          "type": "uint256"
        }
      ],
      "name": "primarySalePrice",
      "outputs": [
        {
          "internalType": "uint256",
          "name": "",
          "type": "uint256"
        }
      ],
      "stateMutability": "view",
      "type": "function",
      "constant": true
    },
    {
      "inputs": [
        {
          "internalType": "address",
          "name": "from",
          "type": "address"
        },
        {
          "internalType": "address",
          "name": "to",
          "type": "address"
        },
        {
          "internalType": "uint256",
          "name": "tokenId",
          "type": "uint256"
        }
      ],
      "name": "safeTransferFrom",
      "outputs": [],
      "stateMutability": "nonpayable",
      "type": "function"
    },
    {
      "inputs": [
        {
          "internalType": "address",
          "name": "from",
          "type": "address"
        },
        {
          "internalType": "address",
          "name": "to",
          "type": "address"
        },
        {
          "internalType": "uint256",
          "name": "tokenId",
          "type": "uint256"
        },
        {
          "internalType": "bytes",
          "name": "_data",
          "type": "bytes"
        }
      ],
      "name": "safeTransferFrom",
      "outputs": [],
      "stateMutability": "nonpayable",
      "type": "function"
    },
    {
      "inputs": [
        {
          "internalType": "address",
          "name": "operator",
          "type": "address"
        },
        {
          "internalType": "bool",
          "name": "approved",
          "type": "bool"
        }
      ],
      "name": "setApprovalForAll",
      "outputs": [],
      "stateMutability": "nonpayable",
      "type": "function"
    },
    {
      "inputs": [
        {
          "internalType": "bytes4",
          "name": "interfaceId",
          "type": "bytes4"
        }
      ],
      "name": "supportsInterface",
      "outputs": [
        {
          "internalType": "bool",
          "name": "",
          "type": "bool"
        }
      ],
      "stateMutability": "view",
      "type": "function",
      "constant": true
    },
    {
      "inputs": [],
      "name": "symbol",
      "outputs": [
        {
          "internalType": "string",
          "name": "",
          "type": "string"
        }
      ],
      "stateMutability": "view",
      "type": "function",
      "constant": true
    },
    {
      "inputs": [
        {
          "internalType": "uint256",
          "name": "index",
          "type": "uint256"
        }
      ],
      "name": "tokenByIndex",
      "outputs": [
        {
          "internalType": "uint256",
          "name": "",
          "type": "uint256"
        }
      ],
      "stateMutability": "view",
      "type": "function",
      "constant": true
    },
    {
      "inputs": [],
      "name": "tokenIdPointer",
      "outputs": [
        {
          "internalType": "uint256",
          "name": "",
          "type": "uint256"
        }
      ],
      "stateMutability": "view",
      "type": "function",
      "constant": true
    },
    {
      "inputs": [
        {
          "internalType": "address",
          "name": "owner",
          "type": "address"
        },
        {
          "internalType": "uint256",
          "name": "index",
          "type": "uint256"
        }
      ],
      "name": "tokenOfOwnerByIndex",
      "outputs": [
        {
          "internalType": "uint256",
          "name": "",
          "type": "uint256"
        }
      ],
      "stateMutability": "view",
      "type": "function",
      "constant": true
    },
    {
      "inputs": [
        {
          "internalType": "uint256",
          "name": "tokenId",
          "type": "uint256"
        }
      ],
      "name": "tokenURI",
      "outputs": [
        {
          "internalType": "string",
          "name": "",
          "type": "string"
        }
      ],
      "stateMutability": "view",
      "type": "function",
      "constant": true
    },
    {
      "inputs": [],
      "name": "totalSupply",
      "outputs": [
        {
          "internalType": "uint256",
          "name": "",
          "type": "uint256"
        }
      ],
      "stateMutability": "view",
      "type": "function",
      "constant": true
    },
    {
      "inputs": [
        {
          "internalType": "address",
          "name": "from",
          "type": "address"
        },
        {
          "internalType": "address",
          "name": "to",
          "type": "address"
        },
        {
          "internalType": "uint256",
          "name": "tokenId",
          "type": "uint256"
        }
      ],
      "name": "transferFrom",
      "outputs": [],
      "stateMutability": "nonpayable",
      "type": "function"
    },
    {
      "inputs": [
        {
          "internalType": "address",
          "name": "_beneficiary",
          "type": "address"
        },
        {
          "internalType": "string",
          "name": "_tokenUri",
          "type": "string"
        },
        {
          "internalType": "address",
          "name": "_postCreator",
          "type": "address"
        }
      ],
      "name": "mint",
      "outputs": [
        {
          "internalType": "uint256",
          "name": "",
          "type": "uint256"
        }
      ],
      "stateMutability": "nonpayable",
      "type": "function"
    },
    {
      "inputs": [
        {
          "internalType": "uint256",
          "name": "_tokenId",
          "type": "uint256"
        }
      ],
      "name": "burn",
      "outputs": [],
      "stateMutability": "nonpayable",
      "type": "function"
    },
    {
      "inputs": [
        {
          "internalType": "string",
          "name": "baseURI_",
          "type": "string"
        }
      ],
      "name": "setBaseURI",
      "outputs": [],
      "stateMutability": "nonpayable",
      "type": "function"
    },
    {
      "inputs": [
        {
          "internalType": "uint256",
          "name": "_tokenId",
          "type": "uint256"
        },
        {
          "internalType": "string",
          "name": "_tokenUri",
          "type": "string"
        }
      ],
      "name": "setTokenURI",
      "outputs": [],
      "stateMutability": "nonpayable",
      "type": "function"
    },
    {
      "inputs": [
        {
          "internalType": "uint256",
          "name": "_tokenId",
          "type": "uint256"
        },
        {
          "internalType": "uint256",
          "name": "_salePrice",
          "type": "uint256"
        }
      ],
      "name": "setPrimarySalePrice",
      "outputs": [],
      "stateMutability": "nonpayable",
      "type": "function"
    },
    {
      "inputs": [
        {
          "internalType": "contract AccessControls",
          "name": "_accessControls",
          "type": "address"
        }
      ],
      "name": "updateAccessControls",
      "outputs": [],
      "stateMutability": "nonpayable",
      "type": "function"
    },
    {
      "inputs": [
        {
          "internalType": "uint256",
          "name": "_tokenId",
          "type": "uint256"
        }
      ],
      "name": "exists",
      "outputs": [
        {
          "internalType": "bool",
          "name": "",
          "type": "bool"
        }
      ],
      "stateMutability": "view",
      "type": "function",
      "constant": true
    },
    {
      "inputs": [
        {
          "internalType": "uint256",
          "name": "_tokenId",
          "type": "uint256"
        },
        {
          "internalType": "address",
          "name": "_operator",
          "type": "address"
        }
      ],
      "name": "isApproved",
      "outputs": [
        {
          "internalType": "bool",
          "name": "",
          "type": "bool"
        }
      ],
      "stateMutability": "view",
      "type": "function",
      "constant": true
    },
    {
      "inputs": [
        {
          "internalType": "uint256",
          "name": "tokenId",
          "type": "uint256"
        }
      ],
      "name": "getNFTDetailByTokenId",
      "outputs": [
        {
          "internalType": "uint256",
          "name": "_tokenId",
          "type": "uint256"
        },
        {
          "internalType": "address",
          "name": "_creator",
          "type": "address"
        },
        {
          "internalType": "address",
          "name": "_owner",
          "type": "address"
        },
        {
          "internalType": "uint256",
          "name": "_tokenPrice",
          "type": "uint256"
        },
        {
          "internalType": "string",
          "name": "_tokenUri",
          "type": "string"
        }
      ],
      "stateMutability": "view",
      "type": "function",
      "constant": true
    }
  ],
  "bytecode": "0x60806040526103e8600b553480156200001757600080fd5b50604051620033c8380380620033c8833981810160405260208110156200003d57600080fd5b5051604080518082018252600c81526b11105c9d119b195e0813919560a21b6020828101919091528251808401909352600383526222232760e91b90830152906200008f6301ffc9a760e01b6200013e565b8151620000a4906006906020850190620001c3565b508051620000ba906007906020840190620001c3565b50620000cd6380ac58cd60e01b6200013e565b620000df635b5e139f60e01b6200013e565b620000f163780e9d6360e01b6200013e565b5050600a80546001600160a01b0319166001600160a01b0383161790556040517f1959893dcc0b57d1c41b593da31fe8a3fec4af7d91ec84a32f607be37fffec1b90600090a1506200025f565b6001600160e01b031980821614156200019e576040805162461bcd60e51b815260206004820152601c60248201527f4552433136353a20696e76616c696420696e7465726661636520696400000000604482015290519081900360640190fd5b6001600160e01b0319166000908152602081905260409020805460ff19166001179055565b828054600181600116156101000203166002900490600052602060002090601f016020900481019282601f106200020657805160ff191683800117855562000236565b8280016001018555821562000236579182015b828111156200023657825182559160200191906001019062000219565b506200024492915062000248565b5090565b5b8082111562000244576000815560010162000249565b613159806200026f6000396000f3fe608060405234801561001057600080fd5b50600436106101e55760003560e01c80634f6ccce71161010f57806395d89b41116100a2578063c87b56dd11610071578063c87b56dd1461084b578063c9f2e86a14610868578063e985e9c514610885578063fa8509c8146108b3576101e5565b806395d89b411461072e5780639920fae314610736578063a22cb46514610759578063b88d4fde14610787576101e5565b80636c0360eb116100de5780636c0360eb146106d25780636ef3da94146106da57806370a0823114610700578063748365ef14610726576101e5565b80634f6ccce7146105c857806355f804b3146105e557806356c31637146106895780636352211e146106b5576101e5565b80632f745c591161018757806342966c681161015657806342966c68146104ae578063429cc97a146104cb5780634a7ac0df146104e85780634f558e79146105ab576101e5565b80632f745c59146103ce5780633b3a1a7a146103fa5780633c99e2e91461040257806342842e0e14610478576101e5565b8063095ea7b3116101c3578063095ea7b3146102db578063162094c41461030957806318160ddd1461037e57806323b872dd14610398576101e5565b806301ffc9a7146101ea57806306fdde0314610225578063081812fc146102a2575b600080fd5b6102116004803603602081101561020057600080fd5b50356001600160e01b03191661093a565b604080519115158252519081900360200190f35b61022d61095d565b6040805160208082528351818301528351919283929083019185019080838360005b8381101561026757818101518382015260200161024f565b50505050905090810190601f1680156102945780820380516001836020036101000a031916815260200191505b509250505060405180910390f35b6102bf600480360360208110156102b857600080fd5b50356109f3565b604080516001600160a01b039092168252519081900360200190f35b610307600480360360408110156102f157600080fd5b506001600160a01b038135169060200135610a55565b005b6103076004803603604081101561031f57600080fd5b81359190810190604081016020820135600160201b81111561034057600080fd5b82018360208201111561035257600080fd5b803590602001918460018302840111600160201b8311171561037357600080fd5b509092509050610b30565b610386610d1c565b60408051918252519081900360200190f35b610307600480360360608110156103ae57600080fd5b506001600160a01b03813581169160208101359091169060400135610d2d565b610386600480360360408110156103e457600080fd5b506001600160a01b038135169060200135610d84565b610386610daf565b6104286004803603602081101561041857600080fd5b50356001600160a01b0316610db5565b60408051602080825283518183015283519192839290830191858101910280838360005b8381101561046457818101518382015260200161044c565b505050509050019250505060405180910390f35b6103076004803603606081101561048e57600080fd5b506001600160a01b03813581169160208101359091169060400135610e21565b610307600480360360208110156104c457600080fd5b5035610e3c565b6102bf600480360360208110156104e157600080fd5b5035610ee3565b610505600480360360208110156104fe57600080fd5b5035610efe565b60405180868152602001856001600160a01b03168152602001846001600160a01b0316815260200183815260200180602001828103825283818151815260200191508051906020019080838360005b8381101561056c578181015183820152602001610554565b50505050905090810190601f1680156105995780820380516001836020036101000a031916815260200191505b50965050505050505060405180910390f35b610211600480360360208110156105c157600080fd5b5035610f54565b610386600480360360208110156105de57600080fd5b5035610f5f565b610307600480360360208110156105fb57600080fd5b810190602081018135600160201b81111561061557600080fd5b82018360208201111561062757600080fd5b803590602001918460018302840111600160201b8311171561064857600080fd5b91908080601f016020809104026020016040519081016040528093929190818152602001838380828437600092019190915250929550610f75945050505050565b6102116004803603604081101561069f57600080fd5b50803590602001356001600160a01b0316611160565b6102bf600480360360208110156106cb57600080fd5b503561119e565b61022d6111c6565b610307600480360360208110156106f057600080fd5b50356001600160a01b0316611227565b6103866004803603602081101561071657600080fd5b50356001600160a01b0316611306565b6102bf61136e565b61022d61137d565b6103076004803603604081101561074c57600080fd5b50803590602001356113de565b6103076004803603604081101561076f57600080fd5b506001600160a01b0381351690602001351515611606565b6103076004803603608081101561079d57600080fd5b6001600160a01b03823581169260208101359091169160408201359190810190608081016060820135600160201b8111156107d757600080fd5b8201836020820111156107e957600080fd5b803590602001918460018302840111600160201b8311171561080a57600080fd5b91908080601f01602080910402602001604051908101604052809392919081815260200183838082843760009201919091525092955061170b945050505050565b61022d6004803603602081101561086157600080fd5b5035611769565b6103866004803603602081101561087e57600080fd5b50356119ec565b6102116004803603604081101561089b57600080fd5b506001600160a01b03813581169160200135166119fe565b610386600480360360608110156108c957600080fd5b6001600160a01b038235169190810190604081016020820135600160201b8111156108f357600080fd5b82018360208201111561090557600080fd5b803590602001918460018302840111600160201b8311171561092657600080fd5b9193509150356001600160a01b0316611a2c565b6001600160e01b0319811660009081526020819052604090205460ff165b919050565b60068054604080516020601f60026000196101006001881615020190951694909404938401819004810282018101909252828152606093909290918301828280156109e95780601f106109be576101008083540402835291602001916109e9565b820191906000526020600020905b8154815290600101906020018083116109cc57829003601f168201915b5050505050905090565b60006109fe82611cae565b610a395760405162461bcd60e51b815260040180806020018281038252602c815260200180612eff602c913960400191505060405180910390fd5b506000908152600460205260409020546001600160a01b031690565b6000610a608261119e565b9050806001600160a01b0316836001600160a01b03161415610ab35760405162461bcd60e51b8152600401808060200182810382526021815260200180612faf6021913960400191505060405180910390fd5b806001600160a01b0316610ac5611cbb565b6001600160a01b03161480610ae65750610ae681610ae1611cbb565b6119fe565b610b215760405162461bcd60e51b8152600401808060200182810382526038815260200180612de46038913960400191505060405180910390fd5b610b2b8383611cbf565b505050565b600a546001600160a01b031663c395fcb3610b49611cbb565b6040518263ffffffff1660e01b815260040180826001600160a01b0316815260200191505060206040518083038186803b158015610b8657600080fd5b505afa158015610b9a573d6000803e3d6000fd5b505050506040513d6020811015610bb057600080fd5b505180610c3b5750600a546001600160a01b031663113b0ab2610bd1611cbb565b6040518263ffffffff1660e01b815260040180826001600160a01b0316815260200191505060206040518083038186803b158015610c0e57600080fd5b505afa158015610c22573d6000803e3d6000fd5b505050506040513d6020811015610c3857600080fd5b50515b610c765760405162461bcd60e51b815260040180806020018281038252603d815260200180613082603d913960400191505060405180910390fd5b610cb68383838080601f016020809104026020016040519081016040528093929190818152602001838380828437600092019190915250611d2d92505050565b827feff917807859847080a7de5fdc185edb62c7a204a60098fd4bb02d825ef1ca3b838360405180806020018281038252848482818152602001925080828437600083820152604051601f909101601f19169092018290039550909350505050a2505050565b6000610d286002611d90565b905090565b610d3e610d38611cbb565b82611d9b565b610d795760405162461bcd60e51b8152600401808060200182810382526031815260200180612fd06031913960400191505060405180910390fd5b610b2b838383611e37565b6001600160a01b0382166000908152600160205260408120610da69083611f83565b90505b92915050565b600b5481565b6001600160a01b038116600090815260016020908152604091829020805483518184028101840190945280845260609392830182828015610e1557602002820191906000526020600020905b815481526020019060010190808311610e01575b50505050509050919050565b610b2b8383836040518060200160405280600081525061170b565b6000610e46611cbb565b9050806001600160a01b0316610e5b8361119e565b6001600160a01b03161480610e755750610e758282611160565b610eb05760405162461bcd60e51b81526004018080602001828103825260308152602001806130bf6030913960400191505060405180910390fd5b610eb982611f8f565b506000908152600c6020908152604080832080546001600160a01b0319169055600d909152812055565b600c602052600090815260409020546001600160a01b031681565b6000818152600c602052604081205481908190819060609086906001600160a01b0316610f2a8261119e565b6000898152600d6020526040902054610f428a611769565b939a9299509097509550909350915050565b6000610da982611cae565b600080610f6d60028461205c565b509392505050565b600a546001600160a01b031663c395fcb3610f8e611cbb565b6040518263ffffffff1660e01b815260040180826001600160a01b0316815260200191505060206040518083038186803b158015610fcb57600080fd5b505afa158015610fdf573d6000803e3d6000fd5b505050506040513d6020811015610ff557600080fd5b5051806110805750600a546001600160a01b031663113b0ab2611016611cbb565b6040518263ffffffff1660e01b815260040180826001600160a01b0316815260200191505060206040518083038186803b15801561105357600080fd5b505afa158015611067573d6000803e3d6000fd5b505050506040513d602081101561107d57600080fd5b50515b6110bb5760405162461bcd60e51b815260040180806020018281038252603d815260200180613082603d913960400191505060405180910390fd5b6110c481612078565b7f99e1d044f7c2134e24ce00bba350a437a9ce1b4f04c222d8ff37164df8727ca0816040518080602001828103825283818151815260200191508051906020019080838360005b8381101561112357818101518382015260200161110b565b50505050905090810190601f1680156111505780820380516001836020036101000a031916815260200191505b509250505060405180910390a150565b600061117461116e8461119e565b836119fe565b80610da65750816001600160a01b031661118d846109f3565b6001600160a01b0316149392505050565b6000610da982604051806060016040528060298152602001612e46602991396002919061208b565b60098054604080516020601f60026000196101006001881615020190951694909404938401819004810282018101909252828152606093909290918301828280156109e95780601f106109be576101008083540402835291602001916109e9565b600a546001600160a01b031663c395fcb3611240611cbb565b6040518263ffffffff1660e01b815260040180826001600160a01b0316815260200191505060206040518083038186803b15801561127d57600080fd5b505afa158015611291573d6000803e3d6000fd5b505050506040513d60208110156112a757600080fd5b50516112e45760405162461bcd60e51b8152600401808060200182810382526036815260200180612d5c6036913960400191505060405180910390fd5b600a80546001600160a01b0319166001600160a01b0392909216919091179055565b60006001600160a01b03821661134d5760405162461bcd60e51b815260040180806020018281038252602a815260200180612e1c602a913960400191505060405180910390fd5b6001600160a01b0382166000908152600160205260409020610da990611d90565b600a546001600160a01b031681565b60078054604080516020601f60026000196101006001881615020190951694909404938401819004810282018101909252828152606093909290918301828280156109e95780601f106109be576101008083540402835291602001916109e9565b600a546001600160a01b031663c395fcb36113f7611cbb565b6040518263ffffffff1660e01b815260040180826001600160a01b0316815260200191505060206040518083038186803b15801561143457600080fd5b505afa158015611448573d6000803e3d6000fd5b505050506040513d602081101561145e57600080fd5b5051806114e95750600a546001600160a01b031663113b0ab261147f611cbb565b6040518263ffffffff1660e01b815260040180826001600160a01b0316815260200191505060206040518083038186803b1580156114bc57600080fd5b505afa1580156114d0573d6000803e3d6000fd5b505050506040513d60208110156114e657600080fd5b50515b6115245760405162461bcd60e51b815260040180806020018281038252603d815260200180613082603d913960400191505060405180910390fd5b61152d82611cae565b6115685760405162461bcd60e51b81526004018080602001828103825260358152602001806130ef6035913960400191505060405180910390fd5b600081116115a75760405162461bcd60e51b8152600401808060200182810382526033815260200180612e916033913960400191505060405180910390fd5b6000828152600d6020526040902054611602576000828152600d60209081526040918290208390558151838152915184927f11bca5f024ebf5e6af6f261fba2b68f29967d11017cd0a17767db1e07419692a92908290030190a25b5050565b61160e611cbb565b6001600160a01b0316826001600160a01b03161415611674576040805162461bcd60e51b815260206004820152601960248201527f4552433732313a20617070726f766520746f2063616c6c657200000000000000604482015290519081900360640190fd5b8060056000611681611cbb565b6001600160a01b03908116825260208083019390935260409182016000908120918716808252919093529120805460ff1916921515929092179091556116c5611cbb565b6001600160a01b03167f17307eab39ab6107e8899845ad3d59bd9653f200f220920489ca2b5937696c318360405180821515815260200191505060405180910390a35050565b61171c611716611cbb565b83611d9b565b6117575760405162461bcd60e51b8152600401808060200182810382526031815260200180612fd06031913960400191505060405180910390fd5b611763848484846120a2565b50505050565b606061177482611cae565b6117af5760405162461bcd60e51b815260040180806020018281038252602f815260200180612f80602f913960400191505060405180910390fd5b60008281526008602090815260409182902080548351601f60026000196101006001861615020190931692909204918201849004840281018401909452808452606093928301828280156118445780601f1061181957610100808354040283529160200191611844565b820191906000526020600020905b81548152906001019060200180831161182757829003601f168201915b5050505050905060606118556111c6565b905080516000141561186957509050610958565b81511561192a5780826040516020018083805190602001908083835b602083106118a45780518252601f199092019160209182019101611885565b51815160209384036101000a600019018019909216911617905285519190930192850191508083835b602083106118ec5780518252601f1990920191602091820191016118cd565b6001836020036101000a0380198251168184511680821785525050505050509050019250505060405160208183030381529060405292505050610958565b80611934856120f4565b6040516020018083805190602001908083835b602083106119665780518252601f199092019160209182019101611947565b51815160209384036101000a600019018019909216911617905285519190930192850191508083835b602083106119ae5780518252601f19909201916020918201910161198f565b6001836020036101000a0380198251168184511680821785525050505050509050019250505060405160208183030381529060405292505050919050565b600d6020526000908152604090205481565b6001600160a01b03918216600090815260056020908152604080832093909416825291909152205460ff1690565b600a546000906001600160a01b031663c395fcb3611a48611cbb565b6040518263ffffffff1660e01b815260040180826001600160a01b0316815260200191505060206040518083038186803b158015611a8557600080fd5b505afa158015611a99573d6000803e3d6000fd5b505050506040513d6020811015611aaf57600080fd5b505180611b3a5750600a546001600160a01b031663099db017611ad0611cbb565b6040518263ffffffff1660e01b815260040180826001600160a01b0316815260200191505060206040518083038186803b158015611b0d57600080fd5b505afa158015611b21573d6000803e3d6000fd5b505050506040513d6020811015611b3757600080fd5b50515b611b755760405162461bcd60e51b815260040180806020018281038252603b815260200180612ec4603b913960400191505060405180910390fd5b611b808484846121cf565b600b54611b8e906001612250565b600b819055611b9d86826122aa565b611bdd8186868080601f016020809104026020016040519081016040528093929190818152602001838380828437600092019190915250611d2d92505050565b6000818152600c602090815260409182902080546001600160a01b0319166001600160a01b0387811691821790925583518581529283015288169181019190915260a0606082018181529082018690527fc5709b373581f11c9503507f83f5606c88707b77534665d3d34396f8eb66850391839186918a918a918a916080820160c08301858580828437600083820152601f01601f19169091019384039091525050600681526531206f66203160d01b602082015260408051918290030195509350505050a190505b949350505050565b6000610da96002836122c4565b3390565b600081815260046020526040902080546001600160a01b0319166001600160a01b0384169081179091558190611cf48261119e565b6001600160a01b03167f8c5be1e5ebec7d5bd14f71427d1e84f3dd0314c0f7b2291e5b200ac8c7c3b92560405160405180910390a45050565b611d3682611cae565b611d715760405162461bcd60e51b815260040180806020018281038252602c815260200180612f2b602c913960400191505060405180910390fd5b60008281526008602090815260409091208251610b2b92840190612c09565b6000610da9826122d0565b6000611da682611cae565b611de15760405162461bcd60e51b815260040180806020018281038252602c815260200180612db8602c913960400191505060405180910390fd5b6000611dec8361119e565b9050806001600160a01b0316846001600160a01b03161480611e275750836001600160a01b0316611e1c846109f3565b6001600160a01b0316145b80611ca65750611ca681856119fe565b826001600160a01b0316611e4a8261119e565b6001600160a01b031614611e8f5760405162461bcd60e51b8152600401808060200182810382526029815260200180612f576029913960400191505060405180910390fd5b6001600160a01b038216611ed45760405162461bcd60e51b8152600401808060200182810382526024815260200180612d386024913960400191505060405180910390fd5b611edf838383610b2b565b611eea600082611cbf565b6001600160a01b0383166000908152600160205260409020611f0c90826122d4565b506001600160a01b0382166000908152600160205260409020611f2f90826122e0565b50611f3c600282846122ec565b5080826001600160a01b0316846001600160a01b03167fddf252ad1be2c89b69c2b068fc378daa952ba7f163c4a11628f55a4df523b3ef60405160405180910390a4505050565b6000610da68383612302565b6000611f9a8261119e565b9050611fa881600084610b2b565b611fb3600083611cbf565b6000828152600860205260409020546002600019610100600184161502019091160415611ff1576000828152600860205260408120611ff191612c87565b6001600160a01b038116600090815260016020526040902061201390836122d4565b5061201f600283612366565b5060405182906000906001600160a01b038416907fddf252ad1be2c89b69c2b068fc378daa952ba7f163c4a11628f55a4df523b3ef908390a45050565b600080808061206b8686612372565b9097909650945050505050565b8051611602906009906020840190612c09565b60006120988484846123ed565b90505b9392505050565b6120ad848484611e37565b6120b9848484846124b7565b6117635760405162461bcd60e51b8152600401808060200182810382526032815260200180612d066032913960400191505060405180910390fd5b60608161211957506040805180820190915260018152600360fc1b6020820152610958565b8160005b811561213157600101600a8204915061211d565b60608167ffffffffffffffff8111801561214a57600080fd5b506040519080825280601f01601f191660200182016040528015612175576020820181803683370190505b50859350905060001982015b83156121c657600a840660300160f81b828280600190039350815181106121a457fe5b60200101906001600160f81b031916908160001a905350600a84049350612181565b50949350505050565b8161220b5760405162461bcd60e51b81526004018080602001828103825260398152602001806130496039913960400191505060405180910390fd5b6001600160a01b038116610b2b5760405162461bcd60e51b81526004018080602001828103825260488152602001806130016048913960600191505060405180910390fd5b600082820183811015610da6576040805162461bcd60e51b815260206004820152601b60248201527f536166654d6174683a206164646974696f6e206f766572666c6f770000000000604482015290519081900360640190fd5b61160282826040518060200160405280600081525061261f565b6000610da68383612671565b5490565b6000610da68383612689565b6000610da6838361274f565b600061209884846001600160a01b038516612799565b815460009082106123445760405162461bcd60e51b8152600401808060200182810382526022815260200180612ce46022913960400191505060405180910390fd5b82600001828154811061235357fe5b9060005260206000200154905092915050565b6000610da68383612830565b8154600090819083106123b65760405162461bcd60e51b8152600401808060200182810382526022815260200180612e6f6022913960400191505060405180910390fd5b60008460000184815481106123c757fe5b906000526020600020906002020190508060000154816001015492509250509250929050565b600082815260018401602052604081205482816124885760405162461bcd60e51b81526004018080602001828103825283818151815260200191508051906020019080838360005b8381101561244d578181015183820152602001612435565b50505050905090810190601f16801561247a5780820380516001836020036101000a031916815260200191505b509250505060405180910390fd5b5084600001600182038154811061249b57fe5b9060005260206000209060020201600101549150509392505050565b60006124cb846001600160a01b0316612904565b6124d757506001611ca6565b60606125e5630a85bd0160e11b6124ec611cbb565b88878760405160240180856001600160a01b03168152602001846001600160a01b0316815260200183815260200180602001828103825283818151815260200191508051906020019080838360005b8381101561255357818101518382015260200161253b565b50505050905090810190601f1680156125805780820380516001836020036101000a031916815260200191505b5095505050505050604051602081830303815290604052906001600160e01b0319166020820180516001600160e01b038381831617835250505050604051806060016040528060328152602001612d06603291396001600160a01b038816919061290a565b905060008180602001905160208110156125fe57600080fd5b50516001600160e01b031916630a85bd0160e11b1492505050949350505050565b6126298383612919565b61263660008484846124b7565b610b2b5760405162461bcd60e51b8152600401808060200182810382526032815260200180612d066032913960400191505060405180910390fd5b60009081526001919091016020526040902054151590565b6000818152600183016020526040812054801561274557835460001980830191908101906000908790839081106126bc57fe5b90600052602060002001549050808760000184815481106126d957fe5b60009182526020808320909101929092558281526001898101909252604090209084019055865487908061270957fe5b60019003818190600052602060002001600090559055866001016000878152602001908152602001600020600090556001945050505050610da9565b6000915050610da9565b600061275b8383612671565b61279157508154600181810184556000848152602080822090930184905584548482528286019093526040902091909155610da9565b506000610da9565b6000828152600184016020526040812054806127fe57505060408051808201825283815260208082018481528654600181810189556000898152848120955160029093029095019182559151908201558654868452818801909252929091205561209b565b8285600001600183038154811061281157fe5b906000526020600020906002020160010181905550600091505061209b565b60008181526001830160205260408120548015612745578354600019808301919081019060009087908390811061286357fe5b906000526020600020906002020190508087600001848154811061288357fe5b6000918252602080832084546002909302019182556001938401549184019190915583548252898301905260409020908401905586548790806128c257fe5b6000828152602080822060026000199094019384020182815560019081018390559290935588815289820190925260408220919091559450610da99350505050565b3b151590565b60606120988484600085612a47565b6001600160a01b038216612974576040805162461bcd60e51b815260206004820181905260248201527f4552433732313a206d696e7420746f20746865207a65726f2061646472657373604482015290519081900360640190fd5b61297d81611cae565b156129cf576040805162461bcd60e51b815260206004820152601c60248201527f4552433732313a20746f6b656e20616c7265616479206d696e74656400000000604482015290519081900360640190fd5b6129db60008383610b2b565b6001600160a01b03821660009081526001602052604090206129fd90826122e0565b50612a0a600282846122ec565b5060405181906001600160a01b038416906000907fddf252ad1be2c89b69c2b068fc378daa952ba7f163c4a11628f55a4df523b3ef908290a45050565b606082471015612a885760405162461bcd60e51b8152600401808060200182810382526026815260200180612d926026913960400191505060405180910390fd5b612a9185612904565b612ae2576040805162461bcd60e51b815260206004820152601d60248201527f416464726573733a2063616c6c20746f206e6f6e2d636f6e7472616374000000604482015290519081900360640190fd5b60006060866001600160a01b031685876040518082805190602001908083835b60208310612b215780518252601f199092019160209182019101612b02565b6001836020036101000a03801982511681845116808217855250505050505090500191505060006040518083038185875af1925050503d8060008114612b83576040519150601f19603f3d011682016040523d82523d6000602084013e612b88565b606091505b5091509150612b98828286612ba3565b979650505050505050565b60608315612bb257508161209b565b825115612bc25782518084602001fd5b60405162461bcd60e51b815260206004820181815284516024840152845185939192839260440191908501908083836000831561244d578181015183820152602001612435565b828054600181600116156101000203166002900490600052602060002090601f016020900481019282601f10612c4a57805160ff1916838001178555612c77565b82800160010185558215612c77579182015b82811115612c77578251825591602001919060010190612c5c565b50612c83929150612cce565b5090565b50805460018160011615610100020316600290046000825580601f10612cad5750612ccb565b601f016020900490600052602060002090810190612ccb9190612cce565b50565b5b80821115612c835760008155600101612ccf56fe456e756d657261626c655365743a20696e646578206f7574206f6620626f756e64734552433732313a207472616e7366657220746f206e6f6e20455243373231526563656976657220696d706c656d656e7465724552433732313a207472616e7366657220746f20746865207a65726f206164647265737344417274466c65784e46542e757064617465416363657373436f6e74726f6c733a2053656e646572206d7573742062652061646d696e416464726573733a20696e73756666696369656e742062616c616e636520666f722063616c6c4552433732313a206f70657261746f7220717565727920666f72206e6f6e6578697374656e7420746f6b656e4552433732313a20617070726f76652063616c6c6572206973206e6f74206f776e6572206e6f7220617070726f76656420666f7220616c6c4552433732313a2062616c616e636520717565727920666f7220746865207a65726f20616464726573734552433732313a206f776e657220717565727920666f72206e6f6e6578697374656e7420746f6b656e456e756d657261626c654d61703a20696e646578206f7574206f6620626f756e647344417274466c65784e46542e7365745072696d61727953616c6550726963653a20496e76616c69642073616c6520707269636544417274466c65784e46542e6d696e743a2053656e646572206d7573742068617665207468652061646d696e206f72206d696e74657220726f6c654552433732313a20617070726f76656420717565727920666f72206e6f6e6578697374656e7420746f6b656e4552433732314d657461646174613a2055524920736574206f66206e6f6e6578697374656e7420746f6b656e4552433732313a207472616e73666572206f6620746f6b656e2074686174206973206e6f74206f776e4552433732314d657461646174613a2055524920717565727920666f72206e6f6e6578697374656e7420746f6b656e4552433732313a20617070726f76616c20746f2063757272656e74206f776e65724552433732313a207472616e736665722063616c6c6572206973206e6f74206f776e6572206e6f7220617070726f76656444417274466c65784e46542e5f6173736572744d696e74696e67506172616d7356616c69643a20506f7374206372656174654572726f7273206973207a65726f206164647265737344417274466c65784e46542e5f6173736572744d696e74696e67506172616d7356616c69643a20546f6b656e2055524920697320656d70747944417274466c65784e46542e6d696e743a2053656e646572206d7573742068617665207468652061646d696e206f7220636f6e747261637420726f6c6544417274466c65784e46542e6275726e3a204f6e6c79206761726d656e74206f776e6572206f7220617070726f76656444417274466c65784e46542e7365745072696d61727953616c6550726963653a20546f6b656e20646f6573206e6f74206578697374a2646970667358221220321bce8f2dec95cdf748f9bb54c28eb1d0d22edb2458762c863456546263a84764736f6c634300060c0033",
  "immutableReferences": {},
  "source": "// SPDX-License-Identifier: MIT\r\n\r\npragma solidity ^0.6.0;\r\n\r\nimport \"../AccessControl/AccessControls.sol\";\r\nimport \"../_ERCs/ERC721.sol\";\r\nimport \"@openzeppelin/contracts/utils/EnumerableSet.sol\";\r\n\r\n/**\r\n * @title DArtFlex  NFT\r\n * @dev Issues ERC-721 tokens \r\n */\r\ncontract DArtFlexNFT is ERC721(\"DArtFlex NFT\", \"DFN\") {\r\n\r\n    // @notice event emitted upon construction of this contract, used to bootstrap external indexers\r\n    event DArtFlexNFTContractDeployed();\r\n\r\n    // @notice event emitted when base UIR is updated\r\n    event DArtFlexBaseUriUpdate(\r\n        string _tokenUri\r\n    );\r\n\r\n    // @notice event emitted when token URI is updated\r\n    event DArtFlexTokenUriUpdate(\r\n        uint256 indexed _tokenId,\r\n        string _tokenUri\r\n    );\r\n\r\n    // @notice event emitted when a tokens primary sale occurs\r\n    event TokenPrimarySalePriceSet(\r\n        uint256 indexed _tokenId,\r\n        uint256 _salePrice\r\n    );\r\n\r\n    // @notice event emitted when token is minted\r\n    event DArtFlexNFTMinted(\r\n        uint256 _tokenId,\r\n        address _creator,\r\n        address _owner,\r\n        string _tokenUri,\r\n        string _edition\r\n    );\r\n\r\n    /// @dev Required to govern who can call certain functions\r\n    AccessControls public accessControls;\r\n\r\n    /// @dev current max tokenId\r\n    uint256 public tokenIdPointer = 1000;\r\n\r\n    /// @dev TokenID -> Post Creator address\r\n    mapping(uint256 => address) public postCreators;\r\n\r\n    /// @dev TokenID -> Primary Ether Sale Price in Wei\r\n    mapping(uint256 => uint256) public primarySalePrice;\r\n\r\n    /**\r\n     @notice Constructor\r\n     @param _accessControls Address of the DArtFlexNFT access control contract\r\n     */\r\n    constructor(AccessControls _accessControls) public {\r\n        accessControls = _accessControls;\r\n        emit DArtFlexNFTContractDeployed();\r\n    }\r\n\r\n    /**\r\n     @notice Mints a DArtFlexNFT AND when minting to a contract checks if the beneficiary is a 721 compatible\r\n     @dev Only senders with either the admin or mintor role can invoke this method\r\n     @param _beneficiary Recipient of the NFT\r\n     @param _tokenUri URI for the token being minted\r\n     @param _postCreator Creator of Digital Art\r\n     @return uint256 The token ID of the token that was minted\r\n     */\r\n    function mint(address _beneficiary, string calldata _tokenUri, address _postCreator) external returns (uint256) {\r\n        require(\r\n            accessControls.hasAdminRole(_msgSender()) || accessControls.hasMinterRole(_msgSender()),\r\n            \"DArtFlexNFT.mint: Sender must have the admin or minter role\"\r\n        );\r\n        // Valid args\r\n        _assertMintingParamsValid(_tokenUri, _postCreator);\r\n\r\n        tokenIdPointer = tokenIdPointer.add(1);\r\n        uint256 tokenId = tokenIdPointer;\r\n\r\n        // Mint token and set token URI\r\n        _safeMint(_beneficiary, tokenId);\r\n        _setTokenURI(tokenId, _tokenUri);\r\n\r\n        postCreators[tokenId] = _postCreator;\r\n\r\n        emit DArtFlexNFTMinted(tokenId, _postCreator, _beneficiary, _tokenUri, \"1 of 1\");\r\n\r\n        return tokenId;\r\n    }\r\n\r\n    /**\r\n     @notice Burns a DArtFlexNFT\r\n     @dev Only the owner or an approved sender can call this method\r\n     @param _tokenId the token ID to burn\r\n     */\r\n    function burn(uint256 _tokenId) external {\r\n        address operator = _msgSender();\r\n        require(\r\n            ownerOf(_tokenId) == operator || isApproved(_tokenId, operator),\r\n            \"DArtFlexNFT.burn: Only garment owner or approved\"\r\n        );\r\n        // Destroy token mappings\r\n        _burn(_tokenId);\r\n\r\n        delete postCreators[_tokenId];\r\n        delete primarySalePrice[_tokenId];\r\n    }\r\n\r\n\r\n\r\n    //////////\r\n    // Admin /\r\n    //////////\r\n    /**\r\n     @notice Updates the Base URI of NFT\r\n     @dev Only admin or smart contract\r\n     @param baseURI_ The new URI\r\n     */\r\n    function setBaseURI(string memory baseURI_) external {\r\n        require(\r\n            accessControls.hasAdminRole(_msgSender()) || accessControls.hasSmartContractRole(_msgSender()),\r\n            \"DArtFlexNFT.mint: Sender must have the admin or contract role\"\r\n        );\r\n        _setBaseURI(baseURI_);\r\n        emit DArtFlexBaseUriUpdate(baseURI_);\r\n    }\r\n\r\n    /**\r\n     @notice Updates the token URI of a given token\r\n     @dev Only admin or smart contract\r\n     @param _tokenId The ID of the token being updated\r\n     @param _tokenUri The new URI\r\n     */\r\n    function setTokenURI(uint256 _tokenId, string calldata _tokenUri) external {\r\n        require(\r\n            accessControls.hasAdminRole(_msgSender()) || accessControls.hasSmartContractRole(_msgSender()),\r\n            \"DArtFlexNFT.mint: Sender must have the admin or contract role\"\r\n        );\r\n        _setTokenURI(_tokenId, _tokenUri);\r\n        emit DArtFlexTokenUriUpdate(_tokenId, _tokenUri);\r\n    }\r\n\r\n    /**\r\n     @notice Records the Ether price that a given token was sold for (in WEI)\r\n     @dev Only admin or a smart contract can call this method\r\n     @param _tokenId The ID of the token being updated\r\n     @param _salePrice The primary Ether sale price in WEI\r\n     */\r\n    function setPrimarySalePrice(uint256 _tokenId, uint256 _salePrice) external {\r\n        require(\r\n            accessControls.hasAdminRole(_msgSender()) || accessControls.hasSmartContractRole(_msgSender()),\r\n            \"DArtFlexNFT.mint: Sender must have the admin or contract role\"\r\n        );\r\n        require(_exists(_tokenId), \"DArtFlexNFT.setPrimarySalePrice: Token does not exist\");\r\n        require(_salePrice > 0, \"DArtFlexNFT.setPrimarySalePrice: Invalid sale price\");\r\n\r\n        // Only set it once\r\n        if (primarySalePrice[_tokenId] == 0) {\r\n            primarySalePrice[_tokenId] = _salePrice;\r\n            emit TokenPrimarySalePriceSet(_tokenId, _salePrice);\r\n        }\r\n    }\r\n\r\n    /**\r\n     @notice Method for updating the access controls contract used by the NFT\r\n     @dev Only admin\r\n     @param _accessControls Address of the new access controls contract\r\n     */\r\n    function updateAccessControls(AccessControls _accessControls) external {\r\n        require(accessControls.hasAdminRole(_msgSender()), \"DArtFlexNFT.updateAccessControls: Sender must be admin\");\r\n        accessControls = _accessControls;\r\n    }\r\n    /////////////////\r\n    // View Methods /\r\n    /////////////////\r\n\r\n    /**\r\n     @notice View method for checking whether a token has been minted\r\n     @param _tokenId ID of the token being checked\r\n     */\r\n    function exists(uint256 _tokenId) external view returns (bool) {\r\n        return _exists(_tokenId);\r\n    }\r\n\r\n    /**\r\n     * @dev checks the given token ID is approved either for all or the single token ID\r\n     */\r\n    function isApproved(uint256 _tokenId, address _operator) public view returns (bool) {\r\n        return isApprovedForAll(ownerOf(_tokenId), _operator) || getApproved(_tokenId) == _operator;\r\n    }\r\n\r\n    /**\r\n     * @dev get all information of token Id\r\n     */\r\n    function getNFTDetailByTokenId(uint256 tokenId) external view returns (\r\n        uint256 _tokenId, \r\n        address _creator, \r\n        address _owner, \r\n        uint256 _tokenPrice, \r\n        string memory _tokenUri\r\n    ) {\r\n        return (tokenId, postCreators[tokenId], ownerOf(tokenId), primarySalePrice[tokenId], tokenURI(tokenId));\r\n    }\r\n\r\n    /////////////////////////\r\n    // Internal and Private /\r\n    /////////////////////////\r\n\r\n    /**\r\n     @notice Checks that the URI is not empty and the post creator is a real address\r\n     @param _tokenUri URI supplied on minting\r\n     @param _postCreator Address supplied on minting\r\n     */\r\n    function _assertMintingParamsValid(string calldata _tokenUri, address _postCreator) pure internal {\r\n        require(bytes(_tokenUri).length > 0, \"DArtFlexNFT._assertMintingParamsValid: Token URI is empty\");\r\n        require(_postCreator != address(0), \"DArtFlexNFT._assertMintingParamsValid: Post createErrors is zero address\");\r\n    }\r\n}\r\n",
  "sourcePath": "F:/Development/ideasoft/dArtFlex/smartcontract/contracts/NFT/DArtFlexNFT.sol",
  "compiler": {
    "name": "solc",
    "version": "0.6.12+commit.27d51765.Emscripten.clang"
  },
  "schemaVersion": "3.3.2",
  "updatedAt": "2021-04-12T15:01:51.505Z",
  "networkType": "ethereum",
  "devdoc": {
    "details": "Issues ERC-721 tokens ",
    "kind": "dev",
    "methods": {
      "allTokensOfOwner(address)": {
        "details": "returns the all tokenIds that Account have."
      },
      "approve(address,uint256)": {
        "details": "See {IERC721-approve}."
      },
      "balanceOf(address)": {
        "details": "See {IERC721-balanceOf}."
      },
      "baseURI()": {
        "details": "Returns the base URI set via {_setBaseURI}. This will be automatically added as a prefix in {tokenURI} to each token's URI, or to the token ID if no specific URI is set for that token ID."
      },
      "burn(uint256)": {
        "details": "Only the owner or an approved sender can call this method",
        "params": {
          "_tokenId": "the token ID to burn"
        }
      },
      "constructor": {
        "params": {
          "_accessControls": "Address of the DArtFlexNFT access control contract"
        }
      },
      "exists(uint256)": {
        "params": {
          "_tokenId": "ID of the token being checked"
        }
      },
      "getApproved(uint256)": {
        "details": "See {IERC721-getApproved}."
      },
      "getNFTDetailByTokenId(uint256)": {
        "details": "get all information of token Id"
      },
      "isApproved(uint256,address)": {
        "details": "checks the given token ID is approved either for all or the single token ID"
      },
      "isApprovedForAll(address,address)": {
        "details": "See {IERC721-isApprovedForAll}."
      },
      "mint(address,string,address)": {
        "details": "Only senders with either the admin or mintor role can invoke this method",
        "params": {
          "_beneficiary": "Recipient of the NFT",
          "_postCreator": "Creator of Digital Art",
          "_tokenUri": "URI for the token being minted"
        },
        "returns": {
          "_0": "uint256 The token ID of the token that was minted"
        }
      },
      "name()": {
        "details": "See {IERC721Metadata-name}."
      },
      "ownerOf(uint256)": {
        "details": "See {IERC721-ownerOf}."
      },
      "safeTransferFrom(address,address,uint256)": {
        "details": "See {IERC721-safeTransferFrom}."
      },
      "safeTransferFrom(address,address,uint256,bytes)": {
        "details": "See {IERC721-safeTransferFrom}."
      },
      "setApprovalForAll(address,bool)": {
        "details": "See {IERC721-setApprovalForAll}."
      },
      "setBaseURI(string)": {
        "details": "Only admin or smart contract",
        "params": {
          "baseURI_": "The new URI"
        }
      },
      "setPrimarySalePrice(uint256,uint256)": {
        "details": "Only admin or a smart contract can call this method",
        "params": {
          "_salePrice": "The primary Ether sale price in WEI",
          "_tokenId": "The ID of the token being updated"
        }
      },
      "setTokenURI(uint256,string)": {
        "details": "Only admin or smart contract",
        "params": {
          "_tokenId": "The ID of the token being updated",
          "_tokenUri": "The new URI"
        }
      },
      "supportsInterface(bytes4)": {
        "details": "See {IERC165-supportsInterface}. Time complexity O(1), guaranteed to always use less than 30 000 gas."
      },
      "symbol()": {
        "details": "See {IERC721Metadata-symbol}."
      },
      "tokenByIndex(uint256)": {
        "details": "See {IERC721Enumerable-tokenByIndex}."
      },
      "tokenOfOwnerByIndex(address,uint256)": {
        "details": "See {IERC721Enumerable-tokenOfOwnerByIndex}."
      },
      "tokenURI(uint256)": {
        "details": "See {IERC721Metadata-tokenURI}."
      },
      "totalSupply()": {
        "details": "See {IERC721Enumerable-totalSupply}."
      },
      "transferFrom(address,address,uint256)": {
        "details": "See {IERC721-transferFrom}."
      },
      "updateAccessControls(address)": {
        "details": "Only admin",
        "params": {
          "_accessControls": "Address of the new access controls contract"
        }
      }
    },
    "stateVariables": {
      "accessControls": {
        "details": "Required to govern who can call certain functions"
      },
      "postCreators": {
        "details": "TokenID -> Post Creator address"
      },
      "primarySalePrice": {
        "details": "TokenID -> Primary Ether Sale Price in Wei"
      },
      "tokenIdPointer": {
        "details": "current max tokenId"
      }
    },
    "title": "DArtFlex  NFT",
    "version": 1
  },
  "userdoc": {
    "kind": "user",
    "methods": {
      "burn(uint256)": {
        "notice": "Burns a DArtFlexNFT"
      },
      "constructor": "Constructor",
      "exists(uint256)": {
        "notice": "View method for checking whether a token has been minted"
      },
      "mint(address,string,address)": {
        "notice": "Mints a DArtFlexNFT AND when minting to a contract checks if the beneficiary is a 721 compatible"
      },
      "setBaseURI(string)": {
        "notice": "Updates the Base URI of NFT"
      },
      "setPrimarySalePrice(uint256,uint256)": {
        "notice": "Records the Ether price that a given token was sold for (in WEI)"
      },
      "setTokenURI(uint256,string)": {
        "notice": "Updates the token URI of a given token"
      },
      "updateAccessControls(address)": {
        "notice": "Method for updating the access controls contract used by the NFT"
      }
    },
    "version": 1
  }
}